:1000000073C0000001C10000FFC00000FDC000007F
:10001000FBC00000F9C00000F7C00000F5C0000000
:10002000F3C000000C94210A0C94540A0C94870A23
:10003000EBC000000C9460110C949311E5C000001B
:10004000E3C000000C94C6110C94F9110C942C120E
:100050000C945F120C94FA100C942D110C941E0E3B
:10006000D3C00000D1C00000CFC00000CDC0000050
:10007000CBC00000A7C70000C7C00000C5C000007B
:100080000C9492120C94C5120C94F8120C942B132D
:10009000BBC00000B9C00000B7C00000B5C0000080
:1000A000B3C00000B1C000000C945E130C94911317
:1000B0000C94C4130C94F713A7C000000C942A14DA
:1000C0000C945D140C9490140C94C3149DC0000007
:1000D0009BC0000099C0000097C0000095C00000C0
:1000E00093C00000B8031F0F14BE0FB6F894A89574
:1000F00080916000886180936000109260000FBE64
:1001000014BE0FB6F894A895809160008861809322
:100110006000109260000FBE14BE0FB6F894A89550
:1001200080916000886180936000109260000FBE33
:1001300014BE0FB6F894A8958091600088618093F2
:100140006000109260000FBE14BE0FB6F894A89520
:1001500080916000886180936000109260000FBE03
:1001600014BE0FB6F894A8958091600088618093C2
:100170006000109260000FBE14BE0FB6F894A895F0
:1001800080916000886180936000109260000FBED3
:1001900014BE0FB6F894A895809160008861809392
:1001A0006000109260000FBE11241FBECFEFD1E29D
:1001B000DEBFCDBF00E00CBF13E0A0E0B2E0E8E896
:1001C000F0E300E00BBF02C007900D92A832B10728
:1001D000D9F72DE1A8E2B3E001C01D92A436B20721
:1001E000E1F710E0C4E7D0E000E006C02197010984
:1001F000802FFE010E942018C237D10780E0080737
:10020000A9F7BCD20C944218FBCECF93DF93EC013C
:10021000898581111EC043E062E08B819C810E9430
:10022000EB0B6A8170E020E342E08B819C810E94AD
:10023000CA0D40E069E172E08B819C810E94330D20
:100240006F8170E020E342E08B819C810E94CA0DA7
:100250002EC043E062E08B819C810E94EB0B6A819F
:1002600070E0605E7F4F20E342E08B819C810E94C2
:10027000CA0D40E06EE172E08B819C810E94330DDB
:100280008F8190E09C01220F331F220F331F220F1A
:10029000331F820F931F65E070E00E940D18605EAF
:1002A0007F4F20E342E08B819C810E94CA0D40E099
:1002B00063E272E08B819C810E94330D9A818F8171
:1002C000981798F08885811111C04EE062E08B810B
:1002D0009C810E94EB0B40E065E272E08B819C8187
:1002E0000E94330D81E0888701C01886DF91CF918D
:1002F0000895CF93DF93EC0142E063E08B819C8112
:100300000E94EB0B6A8170E020E243E08B819C81CC
:100310000E94CA0DDF91CF910895CF93DF93EC0136
:100320008D819E8156D7BC0180E090E05AD523EBA9
:100330003BE742EF5EE3E3D528D570E080E090E054
:1003400052D523E333E948E853E452D41ED56A83F7
:10035000DF91CF910895CF93DF93EC018D819E8142
:1003600038D7BC0180E090E03CD52EEA37E441E28A
:100370005EE3C5D520EB32E74EEC51E439D405D528
:100380006A83DF91CF910895CF93DF93EC01CB0186
:10039000188219821A827C836B8340E060E00E949D
:1003A000EB0B40E068E272E08B819C810E94330D90
:1003B000DF91CF910895FC0182818F5F82838C331E
:1003C00068F0128281818F5F81838C3338F01182D3
:1003D00080818F5F8083883108F010820895CF93E9
:1003E000DF93EC0147E060E08B819C810E94EB0B86
:1003F000688170E020E342E08B819C810E94CA0DFD
:100400004AE060E08B819C810E94EB0B698170E087
:1004100020E342E08B819C810E94CA0D4DE060E0A8
:100420008B819C810E94EB0B6A8170E020E342E0AB
:100430008B819C810E94CA0DDF91CF910895CF924C
:10044000DF92EF92FF920F931F93CF93DF93EC0114
:100450006B01C801188219821A827C836B835E83C8
:100460004D8338872F831A870987FC86EB860E9485
:1004700028188883C7010E942818898340E061E01A
:10048000C6010E94EB0B40E068E372E08B819C8127
:100490000E94330D688170E020E342E08B819C81F3
:1004A0000E94CA0D40E061E472E08B819C810E9451
:1004B000330D698170E020E342E08B819C810E94D2
:1004C000CA0DDF91CF911F910F91FF90EF90DF90B8
:1004D000CF900895DC0112961C92129715968D917B
:1004E0009C911697DC01ED91FC910480F581E02D43
:1004F0006FEF19950895FC019081A781B0858C91CB
:1005000098130CC0918111968C911197981308C083
:1005100012968C91811106C081E005C080E003C075
:1005200080E001C080E0882311F081E08283828135
:10053000882351F085819681DC01ED91FC91068044
:10054000F781E02D6FEF19950895EF92FF920F93C9
:100550001F93CF93DF93EC018B017A01C90122E550
:1005600032E039832883188619869B878A870E9400
:1005700028188F831C830B83FE82ED8240E062E0AB
:10058000C8010E94EB0B40E060E472E08B819C812B
:100590000E94330DDF91CF911F910F91FF90EF904B
:1005A0000895CF93DF93EC014EE062E08B819C8154
:1005B0000E94EB0B40E063E472E08B819C810E941F
:1005C000330DDF91CF9108951F93CF93DF93EC010B
:1005D000162F8985882379F070E060527109072E03
:1005E000000C880B990BFFD326E636E646EE5FE358
:1005F00064D3CBD3162F612F8A859B850E94301838
:100600001F83DF91CF911F910895CF93DF93EC016A
:100610008985882389F06F8170E080E090E0E3D3E2
:1006200026E636E646EE5FE36AD420E030E040E0BE
:1006300052E4DFD2AAD36F838F81DF91CF910895E7
:10064000CF93DF93EC01CB012AE532E03983288395
:100650001A827C836B835E834D8340E063E00E945B
:10066000EB0B40E067E472E08B819C810E94330DCC
:10067000DF91CF91089508958AE493E09CDE8DE3A5
:1006800093E039DF81E0809329030895EF92FF9290
:100690000F931F93019709F066C06F3F7F4F09F0DA
:1006A00062C000E010E020E040E069E08FEA93E003
:1006B00061D768E087E993E00E94B90F2CE049E038
:1006C00062E08DE893E00E94CF0CE12CF12C20E059
:1006D00030E04CE353E061E08BE793E00E94F614D6
:1006E00020E030E04EEE55E063E089E693E00E94C2
:1006F000F61420E04FEF60E083E693E07ED62BE334
:1007000033E041E063E089E593E00FD52BE333E08C
:1007100041E065E08FE493E008D56DE873E08AE49A
:1007200093E032DE0F2EF0E0EF2EF0E0FF2EF02D02
:1007300001E010E02AE433E043E653E06DE873E0C3
:100740008DE393E07CDE22E030E049E553E06DE8A4
:1007500073E081E393E0F9DE4FE453E06DE873E08A
:100760008AE293E06DDF1F910F91FF90EF90089563
:100770006FEF7FEF81E090E089CF08957894EE24C9
:10078000EA9400E010E020E030E040E050E068EE65
:1007900073E08BE793E00E94D31520E030E040E067
:1007A00050E068E873E189E693E00E94D3158DE399
:1007B00093E090DE80912903882329F08AE493E076
:1007C0000EDE1092290380912803882341F081E3F3
:1007D00093E01BDD8AE293E08CDD10922803EFEAC0
:1007E000F3E0818591851186883009F4F7C048F4DB
:1007F000823009F45FC0843009F4A6C08130D1F69C
:100800000FC0803209F48EC120F4803109F438C160
:10081000D1CF803409F4D4C1803809F4D8C1CACF0B
:10082000C0914A0347E060E08DE893E0D4D7EDE85B
:10083000F3E0608161606083CF0172D72C2FCC0F11
:10084000330B47E150E060E070E087E993E00E94FD
:10085000EA0F10E08091A303811117C08091A403D7
:100860008823C1F3E7E9F3E0158664897589162FBB
:10087000772720E342E08DE893E00E94CA0D47E02D
:1008800060E08DE893E0A7D7E5CFC7E9D3E0E88142
:10089000F9810480F581E02D64E3CE0119951B8672
:1008A000EDE8F3E060816E7F6083CF0139D710936C
:1008B0004A0380CFC0914B034AE060E08DE893E0AB
:1008C0008AD7EDE8F3E0608161606083CF0128D7CB
:1008D0002C2FCC0F330B4BE350E060E070E087E946
:1008E00093E00E94EA0F10E08091A303811117C0EA
:1008F0008091A4038823C1F3E7E9F3E015866489B6
:100900007589162F772720E342E08DE893E00E9457
:10091000CA0D4AE060E08DE893E05DD7E5CFC7E916
:10092000D3E0E881F9810480F581E02D64E3CE0114
:1009300019951B86EDE8F3E060816E7F6083CF013F
:10094000EFD610934B0336CFC0914C034DE060E0DF
:100950008DE893E040D7EDE8F3E06081616060836B
:10096000CF01DED62C2FCC0F330B4BE350E060E0F1
:1009700070E087E993E00E94EA0F10E08091A30302
:10098000811117C08091A4038823C1F3E7E9F3E044
:10099000158664897589162F772720E342E08DE854
:1009A00093E00E94CA0D4DE060E08DE893E013D71C
:1009B000E5CFC7E9D3E0E881F9810480F581E02D36
:1009C00064E3CE0119951B86EDE8F3E060816E7F4C
:1009D0006083CF01A5D610934C03ECCEC0913D03AC
:1009E00047E061E08DE893E0F6D6EDE8F3E0608162
:1009F00061606083CF0194D62C2FCC0F330B47E17D
:100A000050E060E070E087E993E00E94EA0FC0E008
:100A10008091A303811117C08091A4038823C1F39F
:100A2000E7E9F3E0158664897589C62F772720E307
:100A300042E08DE893E00E94CA0D47E061E08DE856
:100A400093E0C9D6E5CF07E913E0D801ED91FC9119
:100A50000480F581E02D64E3C8011995F80113863F
:100A6000EDE8F3E060816E7F6083CF0159D6EDE35E
:100A7000F3E0C0836C2F818592850E9430189ACE56
:100A8000C0913E034AE061E08DE893E0A4D6EDE832
:100A9000F3E0608161606083CF0142D62C2FCC0FE0
:100AA000330B4BE350E060E070E087E993E00E9495
:100AB000EA0FC0E08091A303811117C08091A403C5
:100AC0008823C1F3E7E9F3E0158664897589C62FA9
:100AD000772720E342E08DE893E00E94CA0D4AE0C8
:100AE00061E08DE893E077D6E5CF07E913E0D80120
:100AF000ED91FC910480F581E02D64E3C801199526
:100B0000F8011386EDE8F3E060816E7F6083CF012A
:100B100007D6EDE3F3E0C1836C2F838594850E94B3
:100B2000301848CE81E393E070DDC82F49E060E0E3
:100B30008DE893E050D6EDE8F3E06081616060837A
:100B4000CF01EED52C2FCC0F330B48E750E060E0FF
:100B500070E087E993E00E94EA0F10E08091A30320
:100B6000811117C08091A4038823C1F3E7E9F3E062
:100B7000158664897589162F772720E342E08DE872
:100B800093E00E94CA0D49E060E08DE893E023D62F
:100B9000E5CFC7E9D3E0E881F9810480F581E02D54
:100BA00064E3CE0119951B86EDE8F3E060816E7F6A
:100BB0006083CF01B5D5612F81E393E005DDFACDE8
:100BC000E1E3F3E0918581E089278187F3CD81E33B
:100BD00093E0E7DC8DE393E07DDCECCD81E393E013
:100BE0009CDB8AE293E0B7DB81E0809328030895E1
:100BF0005058BB27AA270ED048C139D130F03ED17A
:100C000020F031F49F3F11F41EF42EC10EF4E09554
:100C1000E7FB24C1E92F4AD180F3BA1762077307B3
:100C20008407950718F071F49EF562C10EF4E09503
:100C30000B2EBA2FA02D0B01B90190010C01CA0196
:100C4000A0011124FF27591B99F0593F50F4503E41
:100C500068F11A16F040A22F232F342F4427585F33
:100C6000F3CF469537952795A795F0405395C9F74B
:100C70007EF41F16BA0B620B730B840BBAF0915003
:100C8000A1F0FF0FBB1F661F771F881FC2F70EC0A2
:100C9000BA0F621F731F841F48F487957795679575
:100CA000B795F7959E3F08F0B3CF9395880F08F05E
:100CB0009927EE0F9795879508950CD0E6C0DED062
:100CC00040F0D5D030F021F45F3F19F0C7C051118A
:100CD00010C1CAC0EBD098F39923C9F35523B1F3DF
:100CE000951B550BBB27AA2762177307840738F09B
:100CF0009F5F5F4F220F331F441FAA1FA9F333D0FA
:100D00000E2E3AF0E0E830D091505040E695001CAD
:100D1000CAF729D0FE2F27D0660F771F881FBB1F69
:100D2000261737074807AB07B0E809F0BB0B802D43
:100D3000BF01FF2793585F4F2AF09E3F510568F08F
:100D40008DC0D7C05F3FECF3983EDCF38695779576
:100D50006795B795F7959F5FC9F7880F911D969591
:100D6000879597F90895E1E0660F771F881FBB1FED
:100D7000621773078407BA0720F0621B730B840B9A
:100D8000BA0BEE1F88F7E095089598D088F09F572A
:100D900090F0B92F9927B751A0F0D1F0660F771FC7
:100DA000881F991F1AF0BA95C9F712C0B13081F0A7
:100DB0009FD0B1E008959CC0672F782F8827B85F37
:100DC00039F0B93FCCF3869577956795B395D9F708
:100DD0003EF490958095709561957F4F8F4F9F4F12
:100DE0000895E89409C097FB3EF49095809570951E
:100DF00061957F4F8F4F9F4F9923A9F0F92F96E967
:100E0000BB279395F695879577956795B795F111DB
:100E1000F8CFFAF4BB0F11F460FF1BC06F5F7F4F78
:100E20008F4F9F4F16C0882311F096E911C077238A
:100E300021F09EE8872F762F05C0662371F096E893
:100E4000862F70E060E02AF09A95660F771F881F62
:100E5000DAF7880F9695879597F9089597F99F6720
:100E600080E870E060E008959FEF80EC0895002432
:100E70000A941616170618060906089500240A94FF
:100E800012161306140605060895092E0394000C85
:100E900011F4882352F0BB0F40F4BF2B11F460FF14
:100EA00004C06F5F7F4F8F4F9F4F089557FD90583D
:100EB000440F551F59F05F3F71F04795880F97FB1E
:100EC000991F61F09F3F79F08795089512161306D8
:100ED0001406551FF2CF4695F1DF08C01616170607
:100EE0001806991FF1CF869571056105089408953C
:100EF000E894BB2766277727CB0197F908950BD095
:100F0000C4CFB5DF28F0BADF18F0952309F0A6CFDB
:100F1000ABCF1124EECFCADFA0F3959FD1F3950F8D
:100F200050E0551F629FF001729FBB27F00DB11D6D
:100F3000639FAA27F00DB11DAA1F649F6627B00DFD
:100F4000A11D661F829F2227B00DA11D621F739FE6
:100F5000B00DA11D621F839FA00D611D221F749FF4
:100F60003327A00D611D231F849F600D211D822F3B
:100F7000762F6A2F11249F5750408AF0E1F0882382
:100F80004AF0EE0FFF1FBB1F661F771F881F91508F
:100F90005040A9F79E3F510570F060CFAACF5F3F48
:100FA000ECF3983EDCF3869577956795B795F795C2
:100FB000E7959F5FC1F7FE2B880F911D969587954A
:100FC00097F908951F920F920FB60F9211240BB646
:100FD0000F922F933F934F935F936F937F938F93D2
:100FE0009F93AF93BF93EF93FF938091DB0388238D
:100FF00009F488C0EAE7F0E080818F778083609110
:101000007800709179004091BA03242F30E0F90103
:10101000EE0FFF1FE554FC4FA081B18113968D9117
:101020009C911497860F971F14969C938E931397F9
:10103000A081B18117968C911797815017968C9348
:101040000190F081E02D8781811154C083819481CA
:10105000668170E00E94F91772836183220F331F4B
:10106000F901E554FC4FA081B18114961C921E92A7
:101070001397A081B18116968C91169717968C9331
:101080000190F081E02D81E085834F5F4093BA03AA
:101090008091DB03481710F01092BA03ACE7B0E080
:1010A0008C91887F8C939C91E091BA03F0E0EE0FD5
:1010B000FF1FE554FC4F0190F081E02D8081877087
:1010C000892B8C93E091BA03F0E0EE0FFF1FE554FB
:1010D000FC4F0190F081E02D8081883030F0EBE70B
:1010E000F0E080818860808305C0EBE7F0E08081DC
:1010F000877F8083EAE7F0E0808180688083808159
:1011000080648083FF91EF91BF91AF919F918F9108
:101110007F916F915F914F913F912F910F900BBEF7
:101120000F900FBE0F901F901895FC01403408F0EF
:101130004FE34683318720878091DB03803108F0BD
:1011400047C0811112C0A4E6B0E08C918E7F8C93D1
:10115000AAE7B0E08C9187608C93ACE7B0E08C910B
:1011600080648C938C918F7D8C93683078F0ADE7A0
:10117000B0E02C91362F377081E090E002C0880FEC
:10118000991F3A95E2F7822B8C930DC0AEE7B0E041
:101190002C9181E090E0062E02C0880F991F0A94DE
:1011A000E2F7822B8C9386818783128211821482CC
:1011B000138215826083A091DB0381E08A0F809304
:1011C000DB03B0E0AA0FBB1FA554BC4FED93FC930B
:1011D0000895CF93DF93EC01ECE7F0E08081887F06
:1011E0008083908188818770892B80838881883073
:1011F00030F0EBE7F0E080818860808305C0EBE7AA
:10120000F0E08081877F8083EAE7F0E0808180687A
:101210008083808186FDFDCF6E816623E9F020E02A
:1012200030E0EAE7F0E0A8E7B0E080818064808306
:10123000808186FDFDCF4D915C91119789819A81C6
:10124000840F951F9A8389832F5F3F4F6E81862F6E
:1012500090E0281739074CF389819A8170E00E9449
:10126000F9177A836983EAE7F0E080818F778083DA
:1012700089819A81E885F98519951A8219821D82DA
:10128000DF91CF910895DC012FB7F8941296ED917C
:10129000FC91139714969C91149715968C918F3FFF
:1012A00009F06095692362832FBF0895FC012FB771
:1012B000F89485818F3F59F4A281B38112968C9165
:1012C000129794816923682B12966C930BC0A281AC
:1012D000B38112969C91129784818923609568232B
:1012E00012966C932FBF0895FC012FB7F894858157
:1012F0008F3F61F4A281B38112969C9112978481F1
:1013000089236095682312966C930AC0A281B381E9
:1013100012969C91129784816823692B12966C9384
:101320002FBF0895DC012FB7F8941296ED91FC9130
:101330001397928114968C916823692762832FBF3B
:101340000895FC012FB7F8948481809568238581E6
:101350008F3F29F40280F381E02D808106C0028056
:10136000F381E02D9081892F80952FBF86230895EA
:10137000CF93DF93EC01E881F9810084F185E02DC2
:101380006FEF19959A852885382F30959323922BE6
:1013900098879A85298590959823922B99878A8793
:1013A000EE81FF81309709F01995DF91CF91089573
:1013B000EF92FF921F93CF93DF937C01D62F1FB73D
:1013C000F894D70114966C9114976095ED91FC9167
:1013D0000084F185E02DC7011995C82F80958D23D4
:1013E00009F4E5D31FBF8C2F8D2349F38C2FDF9198
:1013F000CF911F91FF90EF9008950F931F93CF937C
:10140000DF938C01862FD42FC22F24E732E0D8013E
:101410002D933C930E94B017F80193838283D48369
:10142000C583009749F0DC011196DC930280F381BB
:10143000E02DCD2BC095C283DF91CF911F910F91ED
:1014400008951F920F920FB60F9211240BB60F92B0
:101450002F933F934F935F936F937F938F939F93BC
:10146000AF93BF93EF93FF938091DC039091DD03E3
:10147000009739F0DC01ED91FC910484F585E02DB5
:101480001995FF91EF91BF91AF919F918F917F91AE
:101490006F915F914F913F912F910F900BBE0F90E5
:1014A0000FBE0F901F9018951F920F920FB60F92BC
:1014B00011240BB60F922F933F934F935F936F932B
:1014C0007F938F939F93AF93BF93EF93FF938091FD
:1014D000E0039091E103009739F0DC01ED91FC917C
:1014E0000484F585E02D1995FF91EF91BF91AF919F
:1014F0009F918F917F916F915F914F913F912F912C
:101500000F900BBE0F900FBE0F901F9018951F925B
:101510000F920FB60F9211240BB60F922F933F9399
:101520004F935F936F937F938F939F93AF93BF93EB
:10153000EF93FF938091DE039091DF03009739F0E2
:10154000DC01ED91FC910484F585E02D1995FF9166
:10155000EF91BF91AF919F918F917F916F915F912B
:101560004F913F912F910F900BBE0F900FBE0F9098
:101570001F901895FF920F931F93CF93DF93EC0169
:10158000F62E3BDF82E692E0998388831F830E83E9
:10159000188619861A8681E0F8120EC0D093DD03F2
:1015A000C093DC03E8E6F0E08081816080838C8179
:1015B000809580936B0022C089E0F8120EC0D09312
:1015C000DF03C093DE03E8E6F0E08081846080837F
:1015D0008C81809580936D0011C088E0F8120EC058
:1015E000D093E103C093E003E8E6F0E080818260FD
:1015F00080838C818095880F80936C00DF91CF91E0
:101600001F910F91FF900895CF93DF93FC016FB767
:10161000F894A281B3811C92A281B381119780EFCB
:101620008C93A281B3818C9180628C9381E090E055
:10163000A281B3814C919C01018402C0220F331F0F
:101640000A94E2F724272C9325E02A95F1F700006D
:10165000A281B381ED01229728812295207F3C91C0
:10166000AC01018402C0440F551F0A94E2F74327DE
:101670004C933AE03A95F1F700C0A281B3813C91D6
:10168000AC01018402C0440F551F0A94E2F74327BE
:101690004C9335E03A95F1F70000A281B381ED015A
:1016A000229738813C91AC01018402C0440F551F40
:1016B0000A94E2F743274C9322230CF4B9CFA2817A
:1016C000B3818C918F7D8C930280F381E02D3197D3
:1016D0008FEF80836FBFDF91CF910895FC014FB7EB
:1016E000F894A281B3815C9121E030E0C9010184CA
:1016F00002C0880F991F0A94E2F785278C9385E032
:101700008A95F1F70000A281B3818C91018402C017
:10171000220F331F0A94E2F728272C934FBF089516
:10172000EF92FF920F931F93CF93DF93EC01062F5D
:101730008C81893011F0CE0167DF1FB7F894E02E5D
:10174000F12CF594E794F594E794F594E794F594E7
:10175000E794EA81FB81E082CE01C0DF0F70EA816D
:10176000FB810083CE01BADFEA81FB8110828C818C
:10177000893031F587EC90E00197F1F700C0000067
:101780001FC01985143011F084E001C087E08987FB
:10179000FFB6F894EA81FB81E082CE019FDFEA8107
:1017A000FB810083CE019ADFEA81FB8110821987D9
:1017B00087EC90E00197F1F700C00000FFBE04C085
:1017C0001FBF8C818930E9F2DF91CF911F910F917A
:1017D000FF90EF900895CF93DF93FC01A581B68130
:1017E0008C916817F0F411968C9111974817D8F4E2
:1017F00040876783ED01C60FD11D8A81480F848120
:10180000893039F48C918695681718F087E08187C4
:1018100002C084E08187CF01642F606881DF81E0AE
:1018200003C080E001C080E0DF91CF910895FC010A
:10183000908581E0890F8087A581B68111962C91D2
:101840001197821788F08181882349F0108687815B
:101850008F5F87839C91891718F0178201C090874A
:1018600040856781CF01B7CF08951F93CF93DF9352
:10187000EC01162F2FEF81EE94E021508040904034
:10188000E1F700C00000EA81FB8183E08083CE01A4
:1018900025DF8FE19EE40197F1F700C00000CE0143
:1018A0001DDF8FE19EE40197F1F700C00000CE013B
:1018B00015DF8FE19EE40197F1F700C00000EA8197
:1018C000FB8182E08083CE0109DF8FE19EE40197F6
:1018D000F1F700C00000612FCE0122DFED81FE8113
:1018E0008081813021F460E2CE011ADF03C068E21A
:1018F000CE0116DF61E0CE0113DF8C81893031F437
:101900008FE19EE40197F1F700C0000066E0CE0190
:1019100007DF8C81893009F03EC087E08987EA8142
:10192000FB8183E08083CE01D9DE8FE19EE40197C5
:10193000F1F700C00000CE01D1DE8FE19EE40197F7
:10194000F1F700C00000CE01C9DE8FE19EE40197EF
:10195000F1F700C00000EA81FB8182E08083CE01C4
:10196000BDDE8FE19EE40197F1F700C00000612F1A
:10197000CE01D6DE68E2CE01D3DE61E0CE01D0DE5C
:101980008FE19EE40197F1F700C0000066E0CE0110
:10199000C7DE84E08987DF91CF911F9108950F936F
:1019A0001F93CF93DF93EC01862F042F122F0E94F9
:1019B000B0179C012E5F3F4F3B832A8324E0298789
:1019C0000C83402F50E09A01220F331F420F531F08
:1019D000440F551F40585D4F5E834D8318861F820C
:1019E000212F221F2227221F29832FEFFC01218371
:1019F000612F6F776883CE0138DFDF91CF911F9120
:101A00000F9108950F931F93CF93DF93EC01162F3F
:101A10008C81893011F0CE01F7DD0FB7F894812F5A
:101A200082958F708064EA81FB818083CE0156DECF
:101A30001F701064EA81FB811083CE014FDEEA81C2
:101A4000FB8110828C81893031F487EC90E0019722
:101A5000F1F700C000000FBFCE01E9DEDF91CF91AA
:101A60001F910F910895EF92FF920F931F93CF93C1
:101A7000DF937C01442311F050E002C04FEF5FEF91
:101A8000EB018B01040F151F0C171D0739F068813E
:101A9000662321F02196C701B5DFF6CFDF91CF9104
:101AA0001F910F91FF90EF9008958F929F92AF92A8
:101AB000BF92CF92DF92EF92FF920F931F93CF933B
:101AC000DF936C01FB01892B31F40F2EF2EECF2E48
:101AD000F3E0DF2EF02DFF233CF48DE2D6018C9352
:101AE000F195E195F10937C0D6012C9334C0CF01AF
:101AF000B8010E940D187C018E179F0791F43530B4
:101B000021F480E3F60185831CC08881281302C07C
:101B100029830DC08D3219F42883898208C09982E7
:101B200006C0CF01B8010E940D18605D6983C8012D
:101B3000B5010E940D188B013F5F2196F7013630E9
:101B4000B1F6D60116961C9286E090E0841B9109AE
:101B50008C0D9D1D12C0E60131E000E117E20F2E51
:101B6000F0E39F2EF02D0F2EFDE28F2EF02D0F2E85
:101B7000FAE0AF2EB12CF02DBACFDF91CF911F91AB
:101B80000F91FF90EF90DF90CF90BF90AF909F901C
:101B90008F900895CF93DF93EC0180E090E085DF94
:101BA00040E0BC01CE015FDFDF91CF9108958091CD
:101BB000EB03813061F4789483B7817F83BF83B76F
:101BC000816083BF889583B78E7F83BF08958CEE35
:101BD00093E00E941F17909108022BE233E0929F3E
:101BE000F001939FF00D1124E350FC4F4481558187
:101BF00066817781480F511D611D711D4483558396
:101C00006683778308959091EA039923A9F0209140
:101C1000E903E22FF0E0E050FE4F80813FEF308398
:101C200091509093EA032F5F283018F42093E90332
:101C300008951092E90308958FEF0895FF93EF93AD
:101C4000DF93CF93BF93AF939F938F937F936F93C4
:101C50005F934F933F932F931F930F93FF92EF92B6
:101C6000DF92CF92BF92AF929F928F927F926F92AC
:101C70005F924F923F922F921F920F92C091080253
:101C80002C2F30E08FB74BE253E0249FF001259FCB
:101C9000F00D349FF00D1124E350FC4F80878DB779
:101CA0009EB79287818784819581A681B7818F5164
:101CB0009F4FAF4FBF4F84839583A683B7838181A6
:101CC00081110DC08BE293E0289FF001299FF00D58
:101CD000389FF00D1124E350FC4F81E0818393DFA6
:101CE0008F3F19F08093080241C08C2F4BE253E0E4
:101CF0008F5F883008F081E0282F30E0249FF001CA
:101D0000259FF00D349FF00D1124E350FC4F91817D
:101D1000913041F5249FF001259FF00D349FF00D87
:101D20001124E350FC4F9381992361F0249FF0012B
:101D3000259FF00D349FF00D1124E350FC4F91507E
:101D40009383D6CF4BE253E0249FF001259FF00D03
:101D5000349FF00D1124E350FC4F928193838093C4
:101D6000080204C08C13C4CF10920802209108020C
:101D70008BE293E0289FF001299FF00D1124E3509E
:101D8000FC4F11829FB7F8944091EE035091EF03FE
:101D900020910603309107034217530751F4ECEEEC
:101DA000F3E0A481B5818C9185608C93808986BD98
:101DB0000AC0ECEEF3E0A481B5818C9187608C932E
:101DC00080898093B2009FBF209108028BE293E04C
:101DD000289FF001299FF00D1124E350FC4F20852E
:101DE0002FBF20910802289FF001299FF00D112498
:101DF000E350FC4F818592859EBF8DBF0F901F9051
:101E00002F903F904F905F906F907F908F909F901A
:101E1000AF90BF90CF90DF90EF90FF900F911F9108
:101E20002F913F914F915F916F917F918F919F91F2
:101E3000AF91BF91CF91DF91EF91FF91189560E045
:101E40008CEE93E0D8C70895DC011296ED91FC91D9
:101E5000139782816095682362830895DC0112964E
:101E6000ED91FC9113978281682B62830895DC01C8
:101E70001296ED91FC9113978281682762830895F1
:101E80000F931F93CF93DF93FC012385222309F443
:101E90006BC0EC01048915890280F381E02D8081FB
:101EA00083FD0FC081E08C878C899D899B8B8A8BF9
:101EB000E881F9810280F381E02D60E1CE0119957E
:101EC00053C0808183708E8B2C893D89EF89F0E02F
:101ED000EE0FFF1FEE0FFF1FE75FFD4FE80FF11D35
:101EE0009081290F311D97FD3A953D8B2C8B8F8B5F
:101EF0002C893D898E859F85821793075CF09D8B89
:101F00008C8BE881F9810280F381E02D60E2CE01C3
:101F100019951AC02C893D8988899989281739070C
:101F20005CF09D8B8C8BE881F9810280F381E02D40
:101F300064E0CE01199508C0E881F9810480F5813B
:101F4000E02D64E2CE0119958C899D890817190747
:101F500059F0E881F9810480F581E02D60E1CE013E
:101F6000199581E08D871C86DF91CF911F910F918C
:101F700008950F931F93CF93DF93EC0100E010E0DF
:101F800020E044E3F7DA80EC92E099838883EA81E9
:101F9000FB818BEC8283EA81FB8182818463828373
:101FA0001F861E868FE097E2998B888B87E893E1E6
:101FB0009D8B8C8B9B8B8A8B1E8AEA81FB81808117
:101FC00083708F8B1C861D861B86DF91CF911F919E
:101FD0000F9108950F931F93CF93DF93EC01890125
:101FE0006417750724F47F876E87598B488B8E851D
:101FF0009F850817190744F0288939892017310768
:102000001CF01D8B0C8B0EC048895989481B590B3D
:102010009A0112F42F5F3F4F35952795820F931F3A
:102020009D8B8C8B1B8B0A8BE881F9810480F58159
:10203000E02D64E3CE0119958E859F850817190759
:1020400049F4E881F9810280F381E02D60E2CE015C
:1020500019950DC0888999890817190741F4E881F5
:10206000F9810280F381E02D64E0CE0119951C8690
:102070001D8681E08B87DF91CF911F910F9108958D
:10208000CF93DF93EC01E885F985309709F0199536
:102090008A859B85892B39F4E881F9810190F0814B
:1020A000E02DCE011995DF91CF910895CF93DF9365
:1020B000EC01EA85FB85309709F019958E859F859F
:1020C000892B39F4E881F9810190F081E02DCE016E
:1020D0001995DF91CF9108950895CF93DF93EC0187
:1020E000EE85FF85309709F01995E881F981019017
:1020F000F081E02DCE011995DF91CF910895DC019B
:102100002FB7F89412964D915C9113978091060326
:10211000909107034817590759F41496ED91FC91D3
:10212000159780818560808350968C9186BD0BC009
:102130001496ED91FC91159790819760908350963D
:102140008C918093B2002FBF0895CF93DF93EC0161
:10215000E885F985309709F019958A859B85892B43
:1021600039F4E881F9810190F081E02DCE011995D3
:10217000DF91CF910895CF93DF93EC01EA85FB8542
:10218000309709F019958C859D85892B39F4E88164
:10219000F9810190F081E02DCE011995DF91CF9169
:1021A0000895CF93DF93EC01EC85FD85309709F01E
:1021B00019958E859F85892B39F4E881F9810190E5
:1021C000F081E02DCE011995DF91CF910895CF9345
:1021D000DF93EC01EE85FF85309709F01995E881D2
:1021E000F9810190F081E02DCE011995DF91CF9119
:1021F0000895FFCF1F920F920FB60F9211240BB6C6
:102200000F922F933F934F935F936F937F938F938F
:102210009F93AF93BF93EF93FF938091551D909140
:10222000561D009739F0DC01ED91FC910280F3819D
:10223000E02D1995FF91EF91BF91AF919F918F91F3
:102240007F916F915F914F913F912F910F900BBEB6
:102250000F900FBE0F901F9018951F920F920FB600
:102260000F9211240BB60F922F933F934F935F93CE
:102270006F937F938F939F93AF93BF93EF93FF934E
:102280008091551D9091561D009739F0DC01ED911C
:10229000FC910480F581E02D1995FF91EF91BF919C
:1022A000AF919F918F917F916F915F914F913F91EE
:1022B0002F910F900BBE0F900FBE0F901F9018958F
:1022C0001F920F920FB60F9211240BB60F922F93FD
:1022D0003F934F935F936F937F938F939F93AF93AE
:1022E000BF93EF93FF938091591D90915A1D0097D2
:1022F00039F0DC01ED91FC910280F381E02D19951C
:10230000FF91EF91BF91AF919F918F917F916F91CD
:102310005F914F913F912F910F900BBE0F900FBE89
:102320000F901F9018951F920F920FB60F921124C5
:102330000BB60F922F933F934F935F936F937F93BF
:102340008F939F93AF93BF93EF93FF938091591D0A
:1023500090915A1D009739F0DC01ED91FC910480B9
:10236000F581E02D1995FF91EF91BF91AF919F916C
:102370008F917F916F915F914F913F912F910F902E
:102380000BBE0F900FBE0F901F9018951F920F92CB
:102390000FB60F9211240BB60F922F933F934F93CA
:1023A0005F936F937F938F939F93AF93BF93EF93BD
:1023B000FF938091571D9091581D009739F0DC01D3
:1023C000ED91FC910280F381E02D1995FF91EF9141
:1023D000BF91AF919F918F917F916F915F914F913D
:1023E0003F912F910F900BBE0F900FBE0F901F903B
:1023F00018951F920F920FB60F9211240BB60F92E1
:102400002F933F934F935F936F937F938F939F93FC
:10241000AF93BF93EF93FF938091571D9091581DF9
:10242000009739F0DC01ED91FC910480F581E02DFD
:102430001995FF91EF91BF91AF919F918F917F91EE
:102440006F915F914F913F912F910F900BBE0F9025
:102450000FBE0F901F9018951F920F920FB60F92FC
:1024600011240BB60F922F933F934F935F936F936B
:102470007F938F939F93AF93BF93EF93FF9380913D
:10248000571D9091581D009739F0DC01ED91FC919A
:102490000680F781E02D1995FF91EF91BF91AF91E3
:1024A0009F918F917F916F915F914F913F912F916C
:1024B0000F900BBE0F900FBE0F901F9018951F929C
:1024C0000F920FB60F9211240BB60F922F933F93DA
:1024D0004F935F936F937F938F939F93AF93BF932C
:1024E000EF93FF938091571D9091581D009739F0FD
:1024F000DC01ED91FC910084F185E02D1995FF91AF
:10250000EF91BF91AF919F918F917F916F915F916B
:102510004F913F912F910F900BBE0F900FBE0F90D8
:102520001F9018951F920F920FB60F9211240BB6A1
:102530000F922F933F934F935F936F937F938F935C
:102540009F93AF93BF93EF93FF9380915B1D909107
:102550005C1D009739F0DC01ED91FC910280F38164
:10256000E02D1995FF91EF91BF91AF919F918F91C0
:102570007F916F915F914F913F912F910F900BBE83
:102580000F900FBE0F901F9018951F920F920FB6CD
:102590000F9211240BB60F922F933F934F935F939B
:1025A0006F937F938F939F93AF93BF93EF93FF931B
:1025B00080915B1D90915C1D009739F0DC01ED91DD
:1025C000FC910480F581E02D1995FF91EF91BF9169
:1025D000AF919F918F917F916F915F914F913F91BB
:1025E0002F910F900BBE0F900FBE0F901F9018955C
:1025F0001F920F920FB60F9211240BB60F922F93CA
:102600003F934F935F936F937F938F939F93AF937A
:10261000BF93EF93FF9380915B1D90915C1D00979A
:1026200039F0DC01ED91FC910680F781E02D1995E0
:10263000FF91EF91BF91AF919F918F917F916F919A
:102640005F914F913F912F910F900BBE0F900FBE56
:102650000F901F9018951F920F920FB60F92112492
:102660000BB60F922F933F934F935F936F937F938C
:102670008F939F93AF93BF93EF93FF9380915B1DD5
:1026800090915C1D009739F0DC01ED91FC91008484
:10269000F185E02D1995FF91EF91BF91AF919F9139
:1026A0008F917F916F915F914F913F912F910F90FB
:1026B0000BBE0F900FBE0F901F9018951F920F9298
:1026C0000FB60F9211240BB60F922F933F934F9397
:1026D0005F936F937F938F939F93AF93BF93EF938A
:1026E000FF9380915D1D90915E1D009739F0DC0194
:1026F000ED91FC910280F381E02D1995FF91EF910E
:10270000BF91AF919F918F917F916F915F914F9109
:102710003F912F910F900BBE0F900FBE0F901F9007
:1027200018951F920F920FB60F9211240BB60F92AD
:102730002F933F934F935F936F937F938F939F93C9
:10274000AF93BF93EF93FF9380915D1D90915E1DBA
:10275000009739F0DC01ED91FC910480F581E02DCA
:102760001995FF91EF91BF91AF919F918F917F91BB
:102770006F915F914F913F912F910F900BBE0F90F2
:102780000FBE0F901F9018951F920F920FB60F92C9
:1027900011240BB60F922F933F934F935F936F9338
:1027A0007F938F939F93AF93BF93EF93FF9380910A
:1027B0005D1D90915E1D009739F0DC01ED91FC915B
:1027C0000680F781E02D1995FF91EF91BF91AF91B0
:1027D0009F918F917F916F915F914F913F912F9139
:1027E0000F900BBE0F900FBE0F901F9018951F9269
:1027F0000F920FB60F9211240BB60F922F933F93A7
:102800004F935F936F937F938F939F93AF93BF93F8
:10281000EF93FF9380915D1D90915E1D009739F0BD
:10282000DC01ED91FC910084F185E02D1995FF917B
:10283000EF91BF91AF919F918F917F916F915F9138
:102840004F913F912F910F900BBE0F900FBE0F90A5
:102850001F9018951F920F920FB60F9211240BB66E
:102860000F922F933F934F935F936F937F938F9329
:102870009F93AF93BF93EF93FF9380915F1D9091D0
:10288000601D009739F0DC01ED91FC910280F3812D
:10289000E02D1995FF91EF91BF91AF919F918F918D
:1028A0007F916F915F914F913F912F910F900BBE50
:1028B0000F900FBE0F901F9018951F920F920FB69A
:1028C0000F9211240BB60F922F933F934F935F9368
:1028D0006F937F938F939F93AF93BF93EF93FF93E8
:1028E00080915F1D9091601D009739F0DC01ED91A2
:1028F000FC910480F581E02D1995FF91EF91BF9136
:10290000AF919F918F917F916F915F914F913F9187
:102910002F910F900BBE0F900FBE0F901F90189528
:102920001F920F920FB60F9211240BB60F922F9396
:102930003F934F935F936F937F938F939F93AF9347
:10294000BF93EF93FF9380915F1D9091601D00975F
:1029500039F0DC01ED91FC910680F781E02D1995AD
:10296000FF91EF91BF91AF919F918F917F916F9167
:102970005F914F913F912F910F900BBE0F900FBE23
:102980000F901F9018951F920F920FB60F9211245F
:102990000BB60F922F933F934F935F936F937F9359
:1029A0008F939F93AF93BF93EF93FF9380915F1D9E
:1029B0009091601D009739F0DC01ED91FC9100844D
:1029C000F185E02D1995FF91EF91BF91AF919F9106
:1029D0008F917F916F915F914F913F912F910F90C8
:1029E0000BBE0F900FBE0F901F9018959F92AF9245
:1029F000BF92CF92DF92EF92FF920F931F93CF93EC
:102A0000DF93EC01962E5A01690182ED92E09983E1
:102A10008883862FC9D29B838A83E92DF0E0EE0F4D
:102A2000FF1FEA5FFC4F8081918101969D838C831B
:102A30008CEF92E09983888381E0981226C0D0932E
:102A4000581DC093571DA114B10429F0EFE6F0E022
:102A5000808182608083C114D10429F0EFE6F0E028
:102A60008081846080830115110529F0EFE6F0E094
:102A7000808188608083E114F10409F47EC0EFE670
:102A8000F0E080818160808378C083E0981226C066
:102A9000D0935C1DC0935B1DA114B10429F0E1E744
:102AA000F0E0808182608083C114D10429F0E1E7E5
:102AB000F0E08081846080830115110529F0E1E751
:102AC000F0E0808188608083E114F10409F455C04E
:102AD000E1E7F0E08081816080834FC084E098125C
:102AE00025C0D0935E1DC0935D1DA114B10429F0D3
:102AF000E2E7F0E0808182608083C114D10429F094
:102B0000E2E7F0E08081846080830115110529F0FF
:102B1000E2E7F0E0808188608083E114F10469F1EC
:102B2000E2E7F0E080818160808327C085E0981231
:102B30002EC0D093601DC0935F1DA114B10429F075
:102B4000E3E7F0E0808182608083C114D10429F042
:102B5000E3E7F0E08081846080830115110529F0AE
:102B6000E3E7F0E0808188608083E114F10429F0DC
:102B7000E3E7F0E0808181608083B986A886DB8608
:102B8000CA861D870C87FF86EE861E821F82DF9114
:102B9000CF911F910F91FF90EF90DF90CF90BF905A
:102BA000AF909F900895EF92FF920F931F93CF9352
:102BB000DF93FC01FFB6F894A481B5818C91887FE6
:102BC0008C93A481B5818C9185608C93A62FB72FAF
:102BD000A23181E1B80710F0A1E1B1E18FE08A9F55
:102BE000E0018B9FD00D1124642F752F623181E19C
:102BF000780710F061E171E18FE0869FD001879F37
:102C0000B00D1124422F532F423181E1580710F0AB
:102C100041E151E18FE0849FB001859F700D112447
:102C2000202F312F223181E1380710F021E131E1ED
:102C30008FE0829FA001839F500D1124518B408B08
:102C400082819381209108033091090382179307B1
:102C500089F4D0938900C0938800B0938B00A0932F
:102C60008A0070938D0060938C0050938500409390
:102C7000840040C020910C0330910D03821793070C
:102C800089F4D0939900C0939800B0939B00A093CF
:102C90009A0070939D0060939C0050939500409320
:102CA000940028C020910E0330910F0382179307E0
:102CB00089F4D093A900C093A800B093AB00A0936F
:102CC000AA007093AD006093AC005093A5004093B0
:102CD000A40010C0D0932901C0932801B0932B0108
:102CE000A0932A0170932D0160932C01509325012C
:102CF00040932401E68281E08783FFBEDF91CF917C
:102D00001F910F91FF90EF900895BF92CF92DF92A5
:102D1000EF92FF920F931F93CF93DF93EC01B62EA8
:102D20006A01790182ED92E099838883862F3CD1F4
:102D30009B838A83EB2DF0E0EE0FFF1FEA5FFC4FD1
:102D40008081918101969D838C8380EE92E09983AE
:102D50008883B1101DC0D093561DC093551DC1145A
:102D6000D10429F0EEE6F0E0808182608083E114F6
:102D7000F10429F0EEE6F0E08081846080830115A3
:102D8000110529F1EEE6F0E08081816080831FC0AB
:102D900082E0B81226C0D0935A1DC093591DC114A9
:102DA000D10429F0E0E7F0E0808182608083E114C3
:102DB000F10429F0E0E7F0E0808184608083011570
:102DC000110529F0E0E7F0E0808181608083D986F9
:102DD000C886FB86EA861D861C861F870E871E8294
:102DE0001F82DF91CF911F910F91FF90EF90DF90A5
:102DF000CF90BF900895EF92FF920F931F93CF93C0
:102E00007C01C62F00E010E020E030E040E050E020
:102E10007CDF8EEE92E0F70191838083C11104C0C4
:102E200081E080936E0005C0C23019F481E0809388
:102E30007000CF911F910F91FF90EF900895DC01EA
:102E40002FB7F89483B7817F83BF12964D915C9121
:102E5000139780910603909107034817590721F4AF
:102E600086B59FEF96BD05C0E2EBF0E080819FEF55
:102E700090831496ED91FC91159791E090832FBF6C
:102E800093B7916093BF889593B79E7F93BF5096F9
:102E90009C91891B0895FC019FB7F894A481B5818A
:102EA0008C91887F8C93168217829FBF0895FC01B6
:102EB00086818230B8F18F3F11F081508683828104
:102EC000938120910803309109038217930739F405
:102ED0008089918990938500809384000895209142
:102EE0000C0330910D038217930739F4808991897F
:102EF0009093950080939400089520910E03309153
:102F00000F038217930739F4808991899093A50064
:102F10008093A400089580899189909325018093DE
:102F200024010895CF01B7CF0895FC018681823036
:102F3000A0F08F3F11F081508683228133818091F0
:102F40000603909107032817390719F4808986BD75
:102F5000089580898093B2000895CF019CCF089591
:102F6000282F30E041E050E0BA0102C0660F771F21
:102F70008A95E2F7CB014091621D5091631D642355
:102F80007523672B71F4842B952B9093631D80938D
:102F9000621D220F331FF901EE5EFC4F808191818B
:102FA000089580E090E008956091611D282F30E041
:102FB000462F50E0082E02C0559547950A94E2F737
:102FC00040FD14C041E050E0FA0102C0EE0FFF1FC7
:102FD0008A95E2F7CF01862B8093611D220F331F64
:102FE000F901EA5FFC4F80819181089580E090E0D3
:102FF0000895AA1BBB1B51E107C0AA1FBB1FA61740
:10300000B70710F0A61BB70B881F991F5A95A9F791
:1030100080959095BC01CD01089597FB072E16F47D
:10302000009406D077FD08D0E4DF07FC05D03EF41D
:10303000909581959F4F0895709561957F4F089564
:10304000EE0FFF1F881F8BBF0790F691E02D19949C
:10305000F999FECF92BD81BDF89A992780B5089560
:10306000262FF999FECF92BD81BDF89A019700B441
:10307000021639F01FBA20BD0FB6F894FA9AF99AE1
:083080000FBE0895F894FFCF84
:10308800FFFFFFFFFFFFFFFFFF0001FF00FF000042
:1030980001010000FF00FF0100DF43202800DF4698
:1030A80020280029004121005A6569743A202030FF
:1030B800303A30303A303000416C61726D3A20005D
:1030C800543A0020202000463A2020202500000005
:1030D80000008D01050100000000AB01790100002E
:1030E80000004309560974099209A109D809B809C9
:1030F800000000004309560974099209A109D8097A
:103108000114000000000118000000000128000060
:1031180000000210004000000214004000000218E5
:103128000040000002280040000004100040105039
:103138000414004010500428004000400000000023
:103148004309240F2E0F370FA109D809400F00009B
:103158000000F910F910F910F910F910000000003A
:103168009517401056106C106D10000000007F106D
:10317800401056106C106D10000000005717A51075
:10318800BB10D110E71044008000B0009000A000F0
:10319800200120002300260029002C002F003200E7
:0831A800000103010601090109
:00000001FF
